{
  "contractName": "PackageRegistry",
  "abi": [
    {
      "anonymous": false,
      "inputs": [
        {
          "indexed": true,
          "internalType": "bytes32",
          "name": "packageId",
          "type": "bytes32"
        },
        {
          "indexed": false,
          "internalType": "bytes32[]",
          "name": "cardIds",
          "type": "bytes32[]"
        },
        {
          "indexed": false,
          "internalType": "uint256",
          "name": "timestamp",
          "type": "uint256"
        }
      ],
      "name": "PackageCreated",
      "type": "event"
    },
    {
      "anonymous": false,
      "inputs": [
        {
          "indexed": true,
          "internalType": "bytes32",
          "name": "packageId",
          "type": "bytes32"
        },
        {
          "indexed": true,
          "internalType": "bytes32",
          "name": "playerId",
          "type": "bytes32"
        },
        {
          "indexed": false,
          "internalType": "uint256",
          "name": "timestamp",
          "type": "uint256"
        }
      ],
      "name": "PackageOpened",
      "type": "event"
    },
    {
      "inputs": [
        {
          "internalType": "uint256",
          "name": "",
          "type": "uint256"
        }
      ],
      "name": "packageIds",
      "outputs": [
        {
          "internalType": "bytes32",
          "name": "",
          "type": "bytes32"
        }
      ],
      "stateMutability": "view",
      "type": "function",
      "constant": true
    },
    {
      "inputs": [
        {
          "internalType": "bytes32",
          "name": "",
          "type": "bytes32"
        }
      ],
      "name": "packages",
      "outputs": [
        {
          "internalType": "bytes32",
          "name": "id",
          "type": "bytes32"
        },
        {
          "internalType": "bool",
          "name": "opened",
          "type": "bool"
        },
        {
          "internalType": "bytes32",
          "name": "openedBy",
          "type": "bytes32"
        },
        {
          "internalType": "uint256",
          "name": "createdAt",
          "type": "uint256"
        }
      ],
      "stateMutability": "view",
      "type": "function",
      "constant": true
    },
    {
      "inputs": [
        {
          "internalType": "bytes32",
          "name": "_packageId",
          "type": "bytes32"
        },
        {
          "internalType": "bytes32[]",
          "name": "_cardIds",
          "type": "bytes32[]"
        }
      ],
      "name": "createPackage",
      "outputs": [],
      "stateMutability": "nonpayable",
      "type": "function"
    },
    {
      "inputs": [
        {
          "internalType": "bytes32",
          "name": "_packageId",
          "type": "bytes32"
        }
      ],
      "name": "packageExists",
      "outputs": [
        {
          "internalType": "bool",
          "name": "",
          "type": "bool"
        }
      ],
      "stateMutability": "view",
      "type": "function",
      "constant": true
    },
    {
      "inputs": [
        {
          "internalType": "bytes32",
          "name": "_packageId",
          "type": "bytes32"
        }
      ],
      "name": "getPackage",
      "outputs": [
        {
          "components": [
            {
              "internalType": "bytes32",
              "name": "id",
              "type": "bytes32"
            },
            {
              "internalType": "bytes32[]",
              "name": "cardIds",
              "type": "bytes32[]"
            },
            {
              "internalType": "bool",
              "name": "opened",
              "type": "bool"
            },
            {
              "internalType": "bytes32",
              "name": "openedBy",
              "type": "bytes32"
            },
            {
              "internalType": "uint256",
              "name": "createdAt",
              "type": "uint256"
            }
          ],
          "internalType": "struct PackageRegistry.Package",
          "name": "",
          "type": "tuple"
        }
      ],
      "stateMutability": "view",
      "type": "function",
      "constant": true
    },
    {
      "inputs": [],
      "name": "getTotalPackages",
      "outputs": [
        {
          "internalType": "uint256",
          "name": "",
          "type": "uint256"
        }
      ],
      "stateMutability": "view",
      "type": "function",
      "constant": true
    },
    {
      "inputs": [
        {
          "internalType": "uint256",
          "name": "index",
          "type": "uint256"
        }
      ],
      "name": "getPackageByIndex",
      "outputs": [
        {
          "components": [
            {
              "internalType": "bytes32",
              "name": "id",
              "type": "bytes32"
            },
            {
              "internalType": "bytes32[]",
              "name": "cardIds",
              "type": "bytes32[]"
            },
            {
              "internalType": "bool",
              "name": "opened",
              "type": "bool"
            },
            {
              "internalType": "bytes32",
              "name": "openedBy",
              "type": "bytes32"
            },
            {
              "internalType": "uint256",
              "name": "createdAt",
              "type": "uint256"
            }
          ],
          "internalType": "struct PackageRegistry.Package",
          "name": "",
          "type": "tuple"
        }
      ],
      "stateMutability": "view",
      "type": "function",
      "constant": true
    },
    {
      "inputs": [
        {
          "internalType": "uint256",
          "name": "count",
          "type": "uint256"
        }
      ],
      "name": "getRecentPackages",
      "outputs": [
        {
          "components": [
            {
              "internalType": "bytes32",
              "name": "id",
              "type": "bytes32"
            },
            {
              "internalType": "bytes32[]",
              "name": "cardIds",
              "type": "bytes32[]"
            },
            {
              "internalType": "bool",
              "name": "opened",
              "type": "bool"
            },
            {
              "internalType": "bytes32",
              "name": "openedBy",
              "type": "bytes32"
            },
            {
              "internalType": "uint256",
              "name": "createdAt",
              "type": "uint256"
            }
          ],
          "internalType": "struct PackageRegistry.Package[]",
          "name": "",
          "type": "tuple[]"
        }
      ],
      "stateMutability": "view",
      "type": "function",
      "constant": true
    }
  ],
  "bytecode": "0x608060405234801561000f575f80fd5b506111c88061001d5f395ff3fe608060405234801561000f575f80fd5b5060043610610086575f3560e01c8063a20c8d5211610059578063a20c8d521461013b578063a9b352401461016b578063b4f07ff81461019b578063bd6c4285146101b757610086565b8063527f30bc1461008a57806361cd6636146100ba57806371102819146100d8578063a0f38f061461010b575b5f80fd5b6100a4600480360381019061009f919061089f565b6101e7565b6040516100b19190610a26565b60405180910390f35b6100c2610306565b6040516100cf9190610a55565b60405180910390f35b6100f260048036038101906100ed9190610a98565b610312565b6040516101029493929190610ae1565b60405180910390f35b61012560048036038101906101209190610a98565b610349565b6040516101329190610a26565b60405180910390f35b6101556004803603810190610150919061089f565b610455565b6040516101629190610b24565b60405180910390f35b61018560048036038101906101809190610a98565b610475565b6040516101929190610b3d565b60405180910390f35b6101b560048036038101906101b09190610ca6565b610494565b005b6101d160048036038101906101cc919061089f565b610627565b6040516101de9190610e2e565b60405180910390f35b6101ef6107c2565b6001805490508210610236576040517f08c379a000000000000000000000000000000000000000000000000000000000815260040161022d90610ea8565b60405180910390fd5b5f6001838154811061024b5761024a610ec6565b5b905f5260205f20015490505f808281526020019081526020015f206040518060a00160405290815f8201548152602001600182018054806020026020016040519081016040528092919081815260200182805480156102c757602002820191905f5260205f20905b8154815260200190600101908083116102b3575b50505050508152602001600282015f9054906101000a900460ff1615151515815260200160038201548152602001600482015481525050915050919050565b5f600180549050905090565b5f602052805f5260405f205f91509050805f015490806002015f9054906101000a900460ff16908060030154908060040154905084565b6103516107c2565b5f805f8481526020019081526020015f2060040154036103a6576040517f08c379a000000000000000000000000000000000000000000000000000000000815260040161039d90610f3d565b60405180910390fd5b5f808381526020019081526020015f206040518060a00160405290815f82015481526020016001820180548060200260200160405190810160405280929190818152602001828054801561041757602002820191905f5260205f20905b815481526020019060010190808311610403575b50505050508152602001600282015f9054906101000a900460ff16151515158152602001600382015481526020016004820154815250509050919050565b60018181548110610464575f80fd5b905f5260205f20015f915090505481565b5f805f808481526020019081526020015f206004015414159050919050565b60058151146104d8576040517f08c379a00000000000000000000000000000000000000000000000000000000081526004016104cf90610fcb565b60405180910390fd5b5f805f8481526020019081526020015f20600401541461052d576040517f08c379a000000000000000000000000000000000000000000000000000000000815260040161052490611033565b60405180910390fd5b6040518060a001604052808381526020018281526020015f151581526020015f801b8152602001428152505f808481526020019081526020015f205f820151815f0155602082015181600101908051906020019061058c9291906107f5565b506040820151816002015f6101000a81548160ff0219169083151502179055506060820151816003015560808201518160040155905050600182908060018154018082558091505060019003905f5260205f20015f9091909190915055817ffde0e0c080024f506c4a2d841a9d00029b84154a74fb3507475f7f2b00bf5276824260405161061b9291906110bd565b60405180910390a25050565b60605f60018054905090505f8184116106405783610642565b815b90505f8167ffffffffffffffff81111561065f5761065e610b6a565b5b60405190808252806020026020018201604052801561069857816020015b6106856107c2565b81526020019060019003908161067d5790505b5090505f5b828110156107b6575f6001826001876106b69190611118565b6106c09190611118565b815481106106d1576106d0610ec6565b5b905f5260205f20015490505f808281526020019081526020015f206040518060a00160405290815f82015481526020016001820180548060200260200160405190810160405280929190818152602001828054801561074d57602002820191905f5260205f20905b815481526020019060010190808311610739575b50505050508152602001600282015f9054906101000a900460ff161515151581526020016003820154815260200160048201548152505083838151811061079757610796610ec6565b5b60200260200101819052505080806107ae9061114b565b91505061069d565b50809350505050919050565b6040518060a001604052805f8019168152602001606081526020015f151581526020015f80191681526020015f81525090565b828054828255905f5260205f2090810192821561082f579160200282015b8281111561082e578251825591602001919060010190610813565b5b50905061083c9190610840565b5090565b5b80821115610857575f815f905550600101610841565b5090565b5f604051905090565b5f80fd5b5f80fd5b5f819050919050565b61087e8161086c565b8114610888575f80fd5b50565b5f8135905061089981610875565b92915050565b5f602082840312156108b4576108b3610864565b5b5f6108c18482850161088b565b91505092915050565b5f819050919050565b6108dc816108ca565b82525050565b5f81519050919050565b5f82825260208201905092915050565b5f819050602082019050919050565b5f61091683836108d3565b60208301905092915050565b5f602082019050919050565b5f610938826108e2565b61094281856108ec565b935061094d836108fc565b805f5b8381101561097d578151610964888261090b565b975061096f83610922565b925050600181019050610950565b5085935050505092915050565b5f8115159050919050565b61099e8161098a565b82525050565b6109ad8161086c565b82525050565b5f60a083015f8301516109c85f8601826108d3565b50602083015184820360208601526109e0828261092e565b91505060408301516109f56040860182610995565b506060830151610a0860608601826108d3565b506080830151610a1b60808601826109a4565b508091505092915050565b5f6020820190508181035f830152610a3e81846109b3565b905092915050565b610a4f8161086c565b82525050565b5f602082019050610a685f830184610a46565b92915050565b610a77816108ca565b8114610a81575f80fd5b50565b5f81359050610a9281610a6e565b92915050565b5f60208284031215610aad57610aac610864565b5b5f610aba84828501610a84565b91505092915050565b610acc816108ca565b82525050565b610adb8161098a565b82525050565b5f608082019050610af45f830187610ac3565b610b016020830186610ad2565b610b0e6040830185610ac3565b610b1b6060830184610a46565b95945050505050565b5f602082019050610b375f830184610ac3565b92915050565b5f602082019050610b505f830184610ad2565b92915050565b5f80fd5b5f601f19601f8301169050919050565b7f4e487b71000000000000000000000000000000000000000000000000000000005f52604160045260245ffd5b610ba082610b5a565b810181811067ffffffffffffffff82111715610bbf57610bbe610b6a565b5b80604052505050565b5f610bd161085b565b9050610bdd8282610b97565b919050565b5f67ffffffffffffffff821115610bfc57610bfb610b6a565b5b602082029050602081019050919050565b5f80fd5b5f610c23610c1e84610be2565b610bc8565b90508083825260208201905060208402830185811115610c4657610c45610c0d565b5b835b81811015610c6f5780610c5b8882610a84565b845260208401935050602081019050610c48565b5050509392505050565b5f82601f830112610c8d57610c8c610b56565b5b8135610c9d848260208601610c11565b91505092915050565b5f8060408385031215610cbc57610cbb610864565b5b5f610cc985828601610a84565b925050602083013567ffffffffffffffff811115610cea57610ce9610868565b5b610cf685828601610c79565b9150509250929050565b5f81519050919050565b5f82825260208201905092915050565b5f819050602082019050919050565b5f60a083015f830151610d3e5f8601826108d3565b5060208301518482036020860152610d56828261092e565b9150506040830151610d6b6040860182610995565b506060830151610d7e60608601826108d3565b506080830151610d9160808601826109a4565b508091505092915050565b5f610da78383610d29565b905092915050565b5f602082019050919050565b5f610dc582610d00565b610dcf8185610d0a565b935083602082028501610de185610d1a565b805f5b85811015610e1c5784840389528151610dfd8582610d9c565b9450610e0883610daf565b925060208a01995050600181019050610de4565b50829750879550505050505092915050565b5f6020820190508181035f830152610e468184610dbb565b905092915050565b5f82825260208201905092915050565b7f496e64657820696e76616c69646f0000000000000000000000000000000000005f82015250565b5f610e92600e83610e4e565b9150610e9d82610e5e565b602082019050919050565b5f6020820190508181035f830152610ebf81610e86565b9050919050565b7f4e487b71000000000000000000000000000000000000000000000000000000005f52603260045260245ffd5b7f5061636f7465206e616f206578697374650000000000000000000000000000005f82015250565b5f610f27601183610e4e565b9150610f3282610ef3565b602082019050919050565b5f6020820190508181035f830152610f5481610f1b565b9050919050565b7f5061636f74652064657665207465722065786174616d656e74652035206361725f8201527f7461730000000000000000000000000000000000000000000000000000000000602082015250565b5f610fb5602383610e4e565b9150610fc082610f5b565b604082019050919050565b5f6020820190508181035f830152610fe281610fa9565b9050919050565b7f5061636f7465206a6120657869737465000000000000000000000000000000005f82015250565b5f61101d601083610e4e565b915061102882610fe9565b602082019050919050565b5f6020820190508181035f83015261104a81611011565b9050919050565b5f82825260208201905092915050565b5f61106b826108e2565b6110758185611051565b9350611080836108fc565b805f5b838110156110b0578151611097888261090b565b97506110a283610922565b925050600181019050611083565b5085935050505092915050565b5f6040820190508181035f8301526110d58185611061565b90506110e46020830184610a46565b9392505050565b7f4e487b71000000000000000000000000000000000000000000000000000000005f52601160045260245ffd5b5f6111228261086c565b915061112d8361086c565b9250828203905081811115611145576111446110eb565b5b92915050565b5f6111558261086c565b91507fffffffffffffffffffffffffffffffffffffffffffffffffffffffffffffffff8203611187576111866110eb565b5b60018201905091905056fea2646970667358221220d84460ec563f90c26ddb9b9bca208c907dcfa77f94b5181c3baf2b11bfe091d764736f6c63430008150033",
  "immutableReferences": {},
  "source": "// SPDX-License-Identifier: MIT\npragma solidity ^0.8.19;\n\ncontract PackageRegistry {\n    \n    struct Package {\n        bytes32 id;              // ID nico do pacote\n        bytes32[] cardIds;       // IDs das 5 cartas\n        bool opened;             // Se foi aberto\n        bytes32 openedBy;        // ID do jogador que abriu\n        uint256 createdAt;       // Timestamp de criao\n    }\n    \n    // Mapeamento de packageID -> Package\n    mapping(bytes32 => Package) public packages;\n    \n    // Lista de todos os IDs (para iterar)\n    bytes32[] public packageIds;\n    \n    // Eventos para o frontend ouvir\n    event PackageCreated(bytes32 indexed packageId, bytes32[] cardIds, uint256 timestamp);\n    event PackageOpened(bytes32 indexed packageId, bytes32 indexed playerId, uint256 timestamp);\n    \n    // ===== CRIAR PACOTE =====\n    \n    function createPackage(bytes32 _packageId, bytes32[] memory _cardIds) public {\n        require(_cardIds.length == 5, \"Pacote deve ter exatamente 5 cartas\");\n        require(packages[_packageId].createdAt == 0, \"Pacote ja existe\");\n        \n        packages[_packageId] = Package({\n            id: _packageId,\n            cardIds: _cardIds,\n            opened: false,\n            openedBy: bytes32(0),\n            createdAt: block.timestamp\n        });\n        \n        packageIds.push(_packageId);\n        \n        emit PackageCreated(_packageId, _cardIds, block.timestamp);\n    }\n    \n    \n    \n    // ===== CONSULTAS  =====\n    \n    // Verifica se pacote existe\n    function packageExists(bytes32 _packageId) public view returns (bool) {\n        return packages[_packageId].createdAt != 0;\n    }\n    \n    // Retorna informaes do pacote\n    function getPackage(bytes32 _packageId) public view returns (Package memory) {\n        require(packages[_packageId].createdAt != 0, \"Pacote nao existe\");\n        return packages[_packageId];\n    }\n    \n    // Total de pacotes criados\n    function getTotalPackages() public view returns (uint256) {\n        return packageIds.length;\n    }\n    \n    // Pegar pacote por ndice (para iterao)\n    function getPackageByIndex(uint256 index) public view returns (Package memory) {\n        require(index < packageIds.length, \"Index invalido\");\n        bytes32 packageId = packageIds[index];\n        return packages[packageId];\n    }\n    \n    // Listar ltimos N pacotes\n    function getRecentPackages(uint256 count) public view returns (Package[] memory) {\n        uint256 total = packageIds.length;\n        uint256 resultCount = count > total ? total : count;\n        \n        Package[] memory result = new Package[](resultCount);\n        \n        for (uint256 i = 0; i < resultCount; i++) {\n            bytes32 packageId = packageIds[total - 1 - i];\n            result[i] = packages[packageId];\n        }\n        \n        return result;\n    }\n}",
  "sourcePath": "/home/milly/Jogo-de-Cartas-Multiplayer-Distribuido/blockchain/contracts/PackgeRegister.sol",
  "compiler": {
    "name": "solc",
    "version": "0.8.21+commit.d9974bed.Emscripten.clang"
  },
  "schemaVersion": "3.4.16",
  "updatedAt": "2025-11-16T17:52:12.244Z",
  "networkType": "ethereum",
  "devdoc": {
    "kind": "dev",
    "methods": {},
    "version": 1
  },
  "userdoc": {
    "kind": "user",
    "methods": {},
    "version": 1
  }
}